:020000040800F2
:10000000280F0020F5010008FD010008FF0100088D
:1000100001020008030200080502000800000000B9
:1000200000000000000000000000000007020008BF
:1000300009020008000000000B0200087D260008ED
:100040000F0200080F0200080F0200080F0200084C
:100050000F0200080F020008FD1D0008F91E00082D
:10006000211F0008491F0008711F00080F02000827
:100070000F0200080F0200080F0200080F0200081C
:100080000F0200080F0200080F0200080F0200080C
:100090000F0200080F0200080F020008991F000855
:1000A0000F020008912700080F0200080F02000845
:1000B000C1270008ED2700081D2800080F020008CE
:1000C0000F0200080F0200080F0200080F020008CC
:1000D0000F020008ED2E0008FD2E00080D2F00086D
:1000E000251E00080F0200080F02000800F002F8A9
:1000F00000F071F80AA090E8000C82448344AAF151
:100100000107DA4501D100F066F8AFF2090EBAE84E
:100110000F0013F0010F18BFFB1A43F0010318473B
:10012000B0A10000D0A100000A444FF0000C10F86C
:10013000013B13F0070408BF10F8014B1D1108BF65
:1001400010F8015B641E05D010F8016B641E01F805
:10015000016BF9D113F0080F1EBF10F8014BAD1C55
:100160000C1B09D16D1E58BF01F801CBFAD505E073
:1001700014F8016B01F8016B6D1EF9D59142D6D3CD
:10018000704700000023002400250026103A28BFF5
:1001900078C1FBD8520728BF30C148BF0B607047F9
:1001A0001FB59DE8030000F0F7F900F0D1F9040055
:1001B0000020002107F01EFE401C6060002000218E
:1001C00007F02EFEE06000F0ADF91FBD10B5002075
:1001D00000F09EFA10BD00F0A5FB1146FFF7E0FF0E
:1001E00007F050F800F04EFE03B4FFF7EFFF03BC3A
:1001F00000F092FB0948804709480047FEE7FEE708
:10020000FEE7FEE7FEE7FEE7FEE7FEE7FEE7FEE7C6
:1002100004480549054A064B70470000312700088D
:10022000ED00000828090020280F0020280B0020DE
:10023000280B002010B500F08BF9001D10BD00BF89
:10024000B57B000070B50446051F00F07DF900681D
:10025000002C14BF446870BD002C18BFAC423CBFDA
:1002600020466468F8D301680A18AA4218BF45609E
:1002700003D12A6805461144016028684119A1424A
:100280001CBF6C6070BD61686960216808442860AB
:1002900070BD53EA020C00F069802DE9F04B4FF07D
:1002A0000006002B1FBFB3FA83F503FA05F424FA06
:1002B00005F65E4012BF1643B2FA82F502FA05F463
:1002C000C5F120051EBF22FA05FC44EA0C042035C6
:1002D00056EA044C4FEA144418BF641C4FF000085F
:1002E0004FF00009904271EB030C39D3002919BF7C
:1002F000B1FA81F701FA07F6B0FA80F700FA07F6CB
:10030000C7F120071EBF20FA07FC46EA0C0620377B
:10031000B6FBF4FCA7EB0507103F07F01F0BCBF172
:1003200020060CFA0BFB2CFA06F644BFB346002657
:10033000202FA4BF5E464FF0000B5BEA060C08BFFF
:100340004FF0010B19EB0B09ABFB027C48EB0608E5
:10035000C01B06FB02CC0BFB03CC71EB0C01C1E70D
:100360000B46024641464846BDE8F08B13B54FF0B8
:1003700000004FF00001AFF30080BDE81C40704763
:100380002DE9F041074615460E46102000F033F9DE
:1003900004000AD06760C4E9026500F0DDF8016876
:1003A000216004600020BDE8F0810120FBE7032A02
:1003B00040F2308010F0030C00F0158011F8013B82
:1003C000BCF1020F624498BF11F801CB00F8013B69
:1003D00038BF11F8013BA2F1040298BF00F801CB2D
:1003E00038BF00F8013B11F0030300F02580083A04
:1003F000C0F0088051F8043B083A51F804CBA0E85B
:100400000810F5E7121D5CBF51F8043B40F8043BAF
:10041000AFF30080D20724BF11F8013B11F801CBE4
:1004200048BF11F8012B24BF00F8013B00F801CBB5
:1004300048BF00F8012B704710B5203AC0F00B8080
:10044000B1E81850203AA0E81850B1E81850A0E8D8
:100450001850BFF4F5AF5FEA027C24BFB1E8185032
:10046000A0E8185044BF18C918C0BDE810405FEAA2
:10047000827C24BF51F8043B40F8043B08BF70471E
:10048000D20728BF31F8023B48BF11F8012B28BF23
:1004900020F8023B48BF00F8012B70474FF0013CA9
:1004A00050F8042B51F8043B9A4221D1A2EB0C03E3
:1004B000934313EACC1317D150F8042B51F8043BA3
:1004C0009A4215D1A2EB0C03934313EACC130BD140
:1004D00050F8042B51F8043B9A4209D1A2EB0C03CB
:1004E000934313EACC13DBD04FF00000704700BFFA
:1004F000D01A01BAB1FA81F101F0180122FA01F023
:10050000CB40C1F12001DBB2C0B2C01A2CFA01F31A
:10051000D11A914311EAC311E6D170477047704771
:100520007047000070B5064C7C44064D7D4403E0E6
:10053000206820448047241DAC42F9D170BD0000E2
:10054000009F0000109F000000487047D008002066
:1005500000487047E8080020004870470009002064
:1005600000487047C80800207047704770477047C0
:1005700038B504460A4600206946AFF300800028DB
:1005800008BF38BD02460099204600F0F4F801206B
:1005900038BD012000F0A1B9F8B5AFF300800546E1
:1005A00000200C46102000BF0646A819A0420DD915
:1005B000324669460020AFF30080070008BF00F014
:1005C0008CF90098A04218BF0546C419FFF7BCFF7C
:1005D00005600746F01D20F007004619284600F088
:1005E000C3F8B44208BFF8BDA21B31463868BDE865
:1005F000F84000F0C0B870B50646FFF7A5FF0568E3
:1006000006F10B0020F00704B4429CBF002070BD2F
:100610002B466A68BAB11068A04210D304F10801F1
:1006200088423CBF5068586007D351681019416038
:100630001168091B016058601460101D70BD1346DD
:100640005268002AE7D121462846FFF791FF00288B
:10065000DED170BD10B5FFF783FF006810BD10B587
:100660000446FFF77DFF046010BD00000FB40023B7
:1006700000B589B00CA900910B99CB60214B7B444C
:100680000693214B7B44079304236FF00042CDE98E
:1006900001321E4A7A446B4608920246002008F056
:1006A0008CFF09B05DF814FB70B506464FF0FF30C3
:1006B00015460C46324686B00091CDE901016946E7
:1006C0000020049004A8FFF7D1FF024604982118E7
:1006D00025B108B1084600E02046286004980028AB
:1006E0000DD0002A02DD0098884208D03246081B4F
:1006F00069460094CDE9010404A8FFF7B7FF06B0EE
:1007000070BD00002901000041010000656B000080
:100710002DE9F0410646FFF71FFF8046454613E0EE
:1007200016B1E068B0420ED120682860D4E901011A
:10073000D8F8007088472046FFF784FDD8F80000FD
:10074000B842EBD100E025462C68002CE8D1BDE88A
:10075000F08110B500F0C8F8BDE8104000F0B8B85E
:1007600000487047C808002000210160C0E901105E
:10077000704710207047034640688C46002818BF19
:1007800088423CBF03464068F8D318681844884242
:1007900007D00CF1030020F00700001D411A521A87
:1007A0000146081D0A60FFF74DBD426842B101686D
:1007B00011F8013B23B1521EC0E9001218467047E0
:1007C0000121C160881E704742685AB1C368016840
:1007D00043B983688B4205D0491E521CC0E9001200
:1007E000002070474FF0FF30704700002DE9F047C0
:1007F000814616468AB0354878440DC88DE80D000C
:1008000032487844801C03AC0DC884E80D0041F6E2
:100810009B300844372190FBF1F290FBF1F5A5F1F4
:10082000800501FB12041B3C02D56442012000E05C
:100830000020DFF898A080460027FA44AAF1BE0AFB
:100840000EE0E0070AD03246684607EB4701012375
:100850000AEB810101F01CF88DE8070064107F1C91
:10086000002CEED1194F7F44AE3F19E0E80715D0B8
:1008700007EB04100DF1180A90E80E008AE80E004C
:10088000C068F04201D1981908903246012306A9A8
:1008900003A800F0FDFF03AB83E807006D10641CA4
:1008A000002DE3D14FF0010332466946B8F1000F45
:1008B00003A802D000F0C2FF01E000F0E9FFC9E99F
:1008C0000001C9F808200AB0BDE8F087709900005F
:1008D000002801D000F020B8704710B500F0F4FAFD
:1008E000BDE81040FFF7F4BF10B5002102A000F0F2
:1008F000D2FA012010BD00005349475056464E3AE7
:100900002050757265207669727475616C20666E10
:100910002063616C6C65640001491820ABBEFEE782
:10092000260002007546FFF71BFFAE46050069462C
:10093000534620F00700854618B020B5FFF768FC45
:10094000BDE820404FF000064FF000074FF00008D0
:100950004FF0000B21F00701AC46ACE8C009ACE851
:10096000C009ACE8C009ACE8C0098D4670473A2818
:1009700000D2303820F02002412A01D3A2F1370002
:10098000884201D34FF0FF30704700002DE9FF4F40
:1009900006468BB00878FF2806D0491C2D2805D0C4
:1009A00000244FF0000908E000200CE00124F8E7E3
:1009B00009EB8903491C00EB43090878FF28F7D1AC
:1009C00014B1C9F100008146107800252C46AA46D2
:1009D00029462D2801D02B2804D1521C2D2813D0B4
:1009E000002082468B461078FF280FD04FF0000C75
:1009F0000A21521CA5FB017804FB018105FB0C11A7
:100A0000C5194BEB0104EEE70120EAE70021084697
:100A10004FF00000BAF1000F02D000EB8000400858
:100A2000C0F38157012F01DD4FF0FF370E9955EAD2
:100A3000040009EB01080BD04FF0020918F5FA7F0A
:100A400016DA4FEACA70002F706008DD012007E057
:100A50004FEACA70C6E900B00FB0BDE8F08F0020C1
:100A60003060FFF77DFDC0F800901821084616E0C1
:100A7000B8F5FA7F18DD002F02DAF748784401E074
:100A8000F6487844D0E90010C6E9001040EACA7080
:100A90007060FFF765FDC0F80090142108460FB0A4
:100AA000BDE8F04F08F09FBC002108464FF0000061
:100AB000B8F10001099002DAC7F1000200E03A46FD
:100AC00001DAC8F1000106A8FFF790FE06AB93E833
:100AD000070003AB83E8070044F23E005BEA040131
:100AE0000090584604D144F21E012C465D46009108
:100AF000210C0904014306D10099240444EA154459
:100B00002D041039009104F07F41014306D1009972
:100B1000240244EA15642D020839009104F0704162
:100B2000014306D10099240144EA15742D01091FDF
:100B3000009104F04041014306D10099A40044EA29
:100B40009574AD00891E009104F00041084304D162
:100B500000986D196441401E00904FF001033A4621
:100B60006846B8F1000FCDE9014503A902DD00F0A8
:100B7000A4FE01E000F077FEBAF1000F04460D4636
:100B800001D084F00044002108464FF0000009998C
:100B900040F2FF77484010F00C0F07D124F00040DE
:100BA000284303D0C4F30A50B84212D1FFF7D8FC4F
:100BB000C0F80090C4F30A50B8420AD1A84878445B
:100BC000D0E90010C6E9001004F00041084370604D
:100BD00042E7C6E900543FE72DE9FF4F1F464FF0BB
:100BE000000A4FF0FF38454691B0D7E90146CDF8ED
:100BF0003CA0FFF7ADFCC0680168405C1090B9698B
:100C000012986D1C8847396A814688470028F6D1BA
:100C1000B9F1FF3F0AD0002E24F4D06411DDB9F100
:100C20002B0F08D0B9F12D0F0BD102E0404615B0C3
:100C300013E744F48064B96912986D1C8847761EE6
:100C40008146600504A901D52D2000E02B20002E4F
:100C500001F1010B0DF130088DF810003FDDB9F105
:100C6000690F08D0B9F1490F05D0B9F16E0F02D064
:100C7000B9F14E0F1CD13B4601A8009580E8500207
:100C8000DDE912126FF0020008F09BFCC11CCED10E
:100C90000EE0B96912986D1C884781461398761E3C
:100CA00044F4007405600F98401C002E0F9016DD70
:100CB000B9F1300FEDD0B9F1780F02D0B9F1580F7A
:100CC0000DD10F9801280AD13B46CDE90054DDE94A
:100CD0001212001F029608F072FCC11CA7D11099D5
:100CE00089453ED144F0800406E01399681CAAF1BE
:100CF000010A44F400740860B9696D1C1298761EEC
:100D0000884730288146F0D02BE01099894505D1DD
:100D1000200603D4761E44F0800418E0484605F00F
:100D200072FF08B3761E0DF123018B4544F4007465
:100D300008D2A9F130000BF8010B200607D5AAF163
:100D4000010003E0200602D40AF101008246A0055A
:100D500002D51399681C0860B96912986D1C884700
:100D60008146002ED1DC53E0002E51DDB9F1650F34
:100D700002D0B9F1450F4BD1A00549D5B9696D1C19
:100D80001298761E24F440748847002E81460CDDAC
:100D90002B2804D0B9F12D0F07D144F48074B96920
:100DA00012986D1C8847761E8146E00501D52D21DD
:100DB00000E02B2108F8011BCDF8008021E0761E11
:100DC0000DF13901884544F400740CD2A9F13000CA
:100DD00010F0FF0088F8000002D10099884509D979
:100DE00008F1010806E0E00501D51E4801E042F2E5
:100DF0000F708246B96912986D1C88478146139816
:100E00000560002E04DD484605F0FDFE0028D6D121
:100E1000F96912988847FF2053468BF8000088F83C
:100E2000000000200A900B9004AA0CA90AA8FFF762
:100E3000ADFDA00502D46FF00100F8E614F0240F18
:100E400012D0E0071CD13868DDE90A12031D3B60AF
:100E50000068C0E9001213E0789800006A9800006A
:100E60002E970000F1D8FFFF0AA9684605F0F0FCB4
:100E7000E00705D13868009A011D396000680260FA
:100E80002846D4E610B50446AFF300802046BDE8FE
:100E90001040FFF7A9B970B505460C460A2000E0DE
:100EA0006D1C00F039F835B128780028F8D102E03F
:100EB000641C00F031F814B120780028F8D1BDE8A6
:100EC00070400A2000F028B810B5012805D0002194
:100ED00003A0FFF7E0FF012010BD09A1F8E7000023
:100EE00053494752544D454D3A204F7574206F6613
:100EF0002068656170206D656D6F7279000000007B
:100F00003A2048656170206D656D6F727920636F5E
:100F1000727275707465640008B569468DF80000DA
:100F20000320ABBE08BD70472DE9FF4F1F464FF0B1
:100F30003C0987B04FF00042DDE9141001F10108CF
:100F4000DDF858A002EA4050039000200590834647
:100F5000054604460490B969461E08988847AAF1D8
:100F6000010A0290BAF1000F3BDD02982E2815D03D
:100F70001021FFF7FCFC00282EDB4FF0010B059938
:100F8000014317D0B9F1000F0BDB4A46C11700F03F
:100F9000F5F905430C43A9F1040905E0012004908B
:100FA0000BE008B145F0010501200590049820B937
:100FB000361D02E0049800B1361FB969089808F19F
:100FC00001088847BBF1000FAAF1010A0290C9D0BD
:100FD0000999C1F80080C5E70298702808D0502808
:100FE00006D0F96908988847BBF1000F14D04FE08C
:100FF000002002900120BBF1000F049009D0B969D4
:10100000089808F101088847AAF10109B9F1000F11
:1010100007DCF969089888476FF001000BB0BDE85C
:10102000F08F2B2804D02D280CD14FF0FF300490E6
:10103000B969089808F101088847A9F10109B9F1CF
:10104000000FE6DD411CE4D00A21FFF790FC0028E8
:10105000DFDB029908F1010801EB810100EB41009F
:101060000290B969089888470A21FFF780FC099A1D
:10107000A9F10109B9F1000FC2F8008001DD0028D3
:10108000E7DAF969089888470499029800FB016635
:1010900055EA040004D004F04041090002D006E003
:1010A000039898E0A40044EA9574AD00B61E04F0DD
:1010B0000041080002D16D196441761E159810F0A8
:1010C000240F03D04FF00B095C4803E04FF02809D0
:1010D0006FF07D008246564507DAAAEB0601894487
:1010E000B9F1410F01DD4FF0410901200021A9F1C3
:1010F000010200F043F9024628400B462140084314
:1011000001D0012100E00021501E029143F1FF3186
:1011100028402140084301D0012000E0002002992E
:10112000834651EA0B014FD0002108464FF00000E2
:10113000039900F4400039B100EB80004FF4400106
:1011400000EBD07001EA60008015012802DD4FF04D
:10115000FF3000E013D0401C36D0029860B3BBF1E2
:10116000000F0CD14A460120002100F007F9284069
:101170002140084301D0012000E00020E0B101201F
:101180004A46002100F0FAF8034640190A46614138
:101190002D1A8C4111D3B9F1400F09DD159810F0CB
:1011A000240F02D0AAF1340603E0AAF1170600E0EA
:1011B000761C00254FF0004406E05B1E42F1FF3232
:1011C00020EA030521EA0204CAF10100B04206DA6E
:1011D0001B49039808430190002000900EE0039AF9
:1011E000C4F3D321E80A0A43164940EA44500A43AB
:1011F0003146CDE90002684605F0FAFC159810F07A
:10120000240F0BD01598C00715D13868DDE90012FE
:10121000031D3B600068C0E900120CE002A86946AB
:1012200005F016FB1598C00705D13868029A011D14
:101230003960006802604046F0E6000002FCFFFFF3
:101240000000F07F0000F03F2DE9FF4F92461D4661
:1012500085B04FF00041DDE9124BDDE914727F1ECD
:1012600001EA4B50414940F0FF4940EA01080021A2
:1012700022F020004928049102D04E2828D04CE0CA
:101280003BA0012607C88DE80700A9690698641CE1
:1012900088477F1E014606D41DF8060018B121F0CC
:1012A000200181420BD0E96906988847032E34D08B
:1012B000082E32D06FF0010009B0BDE8F08F761C27
:1012C000032E01D0082EE0D1601CCAF80000DCE734
:1012D000A9690698641C88477F1E2AD420F0200044
:1012E000412826D1A9690698641C88477F1E20D40E
:1012F00020F020004E281CD1A9690698641C88475C
:101300007F1E48F4002849F48009CAF8004001D43F
:10131000282806D0E969069888475FEACB7012D082
:1013200022E0A9690698641C88477F1E01D4002822
:1013300003DAE96906988847BCE72928F1D1641CDB
:10134000CAF80040E9E71BF0240F07D02868049989
:10135000031D2B600068C0E9001805E02868021D25
:101360002A600068C0F800902046A5E70000F07FE2
:10137000494E46494E49545900000000B2F120033D
:101380000AD5C2F1200301FA02F120FA03F300FAB0
:1013900002F041EA0301704700FA03F14FF0000048
:1013A000704720F07F4C80EA030023F07F47ACEBCE
:1013B000070303F57C5300F0004003F1FF032DE920
:1013C00080494FEA154B09B44FEA144325EA0B4E06
:1013D00024EA03480FF2042606EB132749083E7857
:1013E0005FEA320203FB0667C7F5000707FB06F654
:1013F0004FEA54374FEAD64606F1020607FB066C61
:10140000CCF1005C4FEA1C472CEA074C07FB06F4C2
:101410000CFB06F504EB15464FEA961634BF002088
:101420004FF000404FEAD13706FB07FC4FEA1C4C57
:101430000CFB0BF7D21B03FB0CF761EB07010CFB5A
:101440000EF7B0EB074072EB17420CFB08F734BF06
:10145000A2EB0742B2EB074261EB17414FEA0C44A3
:101460004FEA910706FB07FC4FEA1C4C0CFB0BF7FD
:10147000B0EBC74072EB573203FB0CF734BFA2EB63
:10148000C742B2EBC74261EB57310CFB0EF7B0EB32
:10149000C70072EB57720CFB08F734BFA2EBC70210
:1014A000B2EBC70261EB5771039F4FEA816141EADA
:1014B000921104EBCC044FEAD1374FEA826206FB6B
:1014C00007FC42EA90124FEA80604FEA1C4C0CFB8A
:1014D0000BF7D21B03FB0CF761EB07010CFB0EF7BC
:1014E000B0EB074072EB17420CFB08F734BFA2EBDE
:1014F0000742B2EB074261EB17414FEA8C554FEAC6
:10150000910704EB9C2406FB07FC4FEA1C4C0CFBE8
:101510000BF7B0EBC74072EB573203FB0CF734BF4D
:10152000A2EBC742B2EBC74261EB57310CFB0EF79F
:10153000B0EBC70072EB57720CFB08F734BFA2EB9D
:10154000C702B2EBC70261EB577115EB4C254FEAAE
:10155000816141EA92114FEA82624FEAD13742EA51
:10156000901206FB07FC44F100044FEA80604FEA4A
:101570001C4C0CFB0BF7D21B03FB0CF761EB0701B8
:101580000CFB0EF7B0EB074072EB17420CFB08F7B1
:1015900034BFA2EB0742B2EB074261EB174115EBF8
:1015A0001C154FEA813141EA92414FEA823242EA08
:1015B00090424FEA80304FEA0C7644F1000448EA4A
:1015C00003434EEA0B484FF0000EB2EB080C71EBF0
:1015D000030724BF624639464EEB0E0E4FF0000B58
:1015E0000018524149414BEB0B0BB2EB080C71EB6D
:1015F00003077BF1000B24BF624639464EEB0E0E0B
:101600004FF0000B0018524149414BEB0B0BB2EB72
:10161000080C71EB03077BF1000B24BF62463946CF
:101620004EEB0E0E51EA020718BF46F0010616EB0C
:101630000E7655F1000254F1000103D5BDE8890191
:10164000BDE80088BDE88901BDE80048B6195241EF
:1016500041EB0101A3F10103704780807F7E7D7C17
:101660007B7A7978777676757473727171706F6E34
:101670006E6D6C6C6B6A6A696868676666656464DF
:10168000636362616160605F5F5E5E5D5D5C5C5B69
:101690005B5A5A59595858575756565555555454D8
:1016A000535352525251515050504F4F4F4E4E4D36
:1016B0004D4D4C4C4C4B4B4B4A4A4A494949484882
:1016C00048474747474646464545454444444443C2
:1016D00043434342424242414141000046EA0646FA
:1016E000A3F570534FEA164646EA42564FEAD22215
:1016F00042EA415210B54FEAD121A3F1010300F0B3
:101700002FF820F0004000F1020C00F0004701EB40
:1017100000501146BCF5006F40EA070000D210BD32
:10172000BAF1000F0AD01CB503B44FF004004FF01B
:1017300004014FF000000FBCBDE810404FF0000165
:10174000BBF1010FB9BF04484FF0FF31034800213E
:1017500040EA070010BD00BFFFFFEF7F0000F07FF1
:10176000002B9C4630D477002BD01CB54FEA3707AE
:1017700003B44FF010004FF01001BAF1000F06D083
:10178000BCF1000FDCBF40F0080040F008014FF052
:1017900000000FBCBDE810400BF1010BBBF1010FC5
:1017A00008BF5FEA170722BF12F1010211F1010120
:1017B0004FF0004143F1000300F0004043EA000015
:1017C0007047F9D35708D0E746EA064613F1400FB1
:1017D0004FEA16461FDD13F1200FDFBF16430A46FE
:1017E000002120335B42BED0C3F1200746EA064603
:1017F00002FA07F74FEA164646EA0706C3F1200742
:1018000022FA03F201FA07F721FA03F14FF000037D
:1018100042EA0702A7E746EA020646EA06464FEA18
:10182000164646EA0106BCBF46EA0646360C4FF0AD
:1018300000034FF000024FF0000194E72DE9804CC7
:101840009A46934670B491E8380007C831EA400CD4
:1018500048BF34EA430C03D5FFF7A3FDFFF780FF31
:10186000F0BCBDE8008C2DE9804C9A46934670B4DC
:1018700091E8380007C831EA400C48BF34EA430C0D
:1018800003D5FFF78EFDFFF729FFF0BCBDE8008C04
:101890002DE9804C9A46934670B491E8380007C809
:1018A00010F0804F08BF13F0804F03D100F01AF8FA
:1018B000FFF756FFF0BCBDE8008C2DE9804C9A463E
:1018C000934670B491E8380007C810F0804F08BF05
:1018D00013F0804F03D100F005F8FFF7FFFEF0BCD6
:1018E000BDE8008C20F07F4780EA030023F07F4CA6
:1018F00007EB0C03A3F57C5300F00040A3F1FE03BB
:1019000092F0000F00F0B38095F0000F00F07780A8
:101910002DE901494FEA11404FEA144621EA0048F7
:1019200000FB06FC24EA064708FB06F607FB08F85E
:1019300000FB07F718EB06484CEB164C4FEA124B2E
:1019400018EB07484FEA15464CEB174022EA0B4EBE
:101950000BFB06FC25EA06470EFB06F607FB0EFE10
:101960000BFB07F71EEB064E4CEB164C4FF0000638
:101970001EEB074E4CEB174B18EB0B0840F1000029
:1019800018EB0E0B58EB000840F100008F1A4FF0D7
:1019900000013CBFC943661B14BFB5EB040C00211A
:1019A0003CBFC943F61B4FEA17444EEA8E0E27EAA6
:1019B00004454FEA1C4704FB07622CEA074C05FB71
:1019C00007F70CFB05F604FB0CFC16EB074642EB95
:1019D000174216EB0C4642EB1C421BEB060658EB7B
:1019E0000202414146EA9E0601D5BDE80189B619C9
:1019F000524141EB0101A3F10103BDE801894FEA26
:101A000014454FEA114724EA054621EA074C05FB35
:101A100007F406FB07F70CFB06F105FB0CFC11EBCA
:101A2000074144EB17444FEA124711EB0C4144EBDA
:101A30001C4422EA074C05FB07F206FB07F70CFBE8
:101A400006F605FB0CFC16EB074642EB174216EBBD
:101A50000C4642EB1C456A1854F1000148BF704720
:101A6000B619524141EB0101A3F10103704795F012
:101A7000000F37D04FEA11424FEA144721EA0246DD
:101A800024EA074C02FB07F106FB07F70CFB06F400
:101A900002FB0CFC14EB074441EB17414FEA1547DE
:101AA00014EB0C4441EB1C4125EA074C02FB07F503
:101AB00006FB07F70CFB06F602FB0CFC16EB0746D1
:101AC00045EB174516EB0C4645EB1C42121951F13C
:101AD000000148BF7047B619524141EB0101A3F123
:101AE000010370474FEA14454FEA114724EA0546BF
:101AF00021EA074C05FB07F106FB07F70CFB06F292
:101B00004FF0000605FB0CFC12EB074241EB1741BE
:101B100012EB0C4251EB1C4148BF7047921841EB4D
:101B20000101A3F10103704721B1826842F0010273
:101B3000826003E0826822F0010282607047000048
:101B400010B504462848007860B9002004E0FF2161
:101B5000264A1154411CC8B21228F8DB0121224A3E
:101B6000117000BF24B3012C22D0022C20D0032CF2
:101B70001ED0042C1CD0052C1AD0062C18D0072CF3
:101B800016D0082C14D0092C12D00A2C10D00B2CF3
:101B90000ED00C2C0CD00D2C0AD00E2C08D00F2CF3
:101BA00006D0102C04D0112C02D04FF0FF3010BD05
:101BB000204600F01FF8401C10B16FF00100F6E75E
:101BC0000B480078122802DB6FF00200EFE70748AD
:101BD00007490978445406480078401C04490870B5
:101BE00008460078401EE2E79901002030080020F6
:101BF000980100200246002107E00748405C90421F
:101C000001D108467047481CC1B20448007881429F
:101C1000F3DB4FF0FF30F5E730080020980100209B
:101C200010B504461248844208D10121401500F045
:101C30000DFC0021601500F009FC17E00D488442FE
:101C400008D10121001500F001FC0021201500F051
:101C5000FDFB0BE00848844208D10121C80300F0D5
:101C6000F5FB00214FF4004000F0F0FB10BD000038
:101C70000024014000280140003C014001460020B2
:101C80008A6802F004020AB1012000E000207047D7
:101C9000014600208A6802F008020AB1012000E033
:101CA0000020704730B502460020002350680F4CDA
:101CB00020400D790C6844EA052420435060906868
:101CC0000B4C2040D1E902542C434D7944EA4504A1
:101CD00020439060D06A20F470000C7C641EE4B253
:101CE000234340EA0350D06230BD0000FFFEF0FF06
:101CF000FDF7F1FF816841F008018160704781685C
:101D000041F004018160704710B586B00446254853
:101D1000844204D10121401500F088FB11E02248E3
:101D2000844204D10121001500F080FB09E01F4826
:101D3000844204D10121C80300F078FB01E006B021
:101D400010BD4FF4004000F055FB2046FFF768FF40
:101D5000002001908DF808008DF809004FF46020F4
:101D600003900020049001208DF8140001A9204662
:101D7000FFF798FF01212046FFF7D6FE2046FFF728
:101D8000B9FF00BF2046FFF783FF0028FAD12046A5
:101D9000FFF7B5FF00BF2046FFF770FF0028FAD11C
:101DA00000BFCCE70024014000280140003C014076
:101DB00010B500F06BFC104800684FF47A71B0FB6E
:101DC000F1F4601EB0F1807F00D30FE0601E4FF091
:101DD000E02148610F214FF0FF3004F097FC002014
:101DE0004FF0E02188610720086100BF0021481EF4
:101DF00004F08CFC10BD00002C02002010B500BFC8
:101E0000012000F023F940B10548006810B10449F1
:101E100008688047012000F013F900BF10BD0000E2
:101E20006808002010B500BF4FF4806000F00EF984
:101E300048B13048806A10B12E49886A80474FF413
:101E4000806000F0FDF800BF00BF4FF4006000F0BC
:101E5000FDF848B12748C06A10B12649C86A8047D2
:101E60004FF4006000F0ECF800BF00BF4FF480506A
:101E700000F0ECF848B11F48006B10B11D49086B29
:101E800080474FF4805000F0DBF800BF00BF4FF4F4
:101E9000005000F0DBF848B11648406B10B115490E
:101EA000486B80474FF4005000F0CAF800BF00BFF5
:101EB0004FF4804000F0CAF848B10E48806B10B172
:101EC0000C49886B80474FF4804000F0B9F800BFA0
:101ED00000BF4FF4004000F0B9F848B10548C06BAE
:101EE00010B10449C86B80474FF4004000F0A8F8D7
:101EF00000BF10BD6808002010B500BF022000F030
:101F0000A5F840B10548406810B1044948688047C9
:101F1000022000F095F800BF10BD00006808002006
:101F200010B500BF042000F091F840B1054880686A
:101F300010B1044988688047042000F081F800BF90
:101F400010BD00006808002010B500BF082000F098
:101F50007DF840B10548C06810B10449C8688047A1
:101F6000082000F06DF800BF10BD000068080020D8
:101F700010B500BF102000F069F840B105480069B5
:101F800010B1044908698047102000F059F800BFDB
:101F900010BD00006808002010B500BF202000F030
:101FA00055F840B12548406910B124494869804737
:101FB000202000F045F800BF00BF402000F046F8A8
:101FC00040B11E48806910B11C4988698047402093
:101FD00000F036F800BF00BF802000F037F840B1B5
:101FE0001648C06910B11549C8698047802000F0C3
:101FF00027F800BF00BF4FF4807000F027F848B109
:102000000E48006A10B10D49086A80474FF480708D
:1020100000F016F800BF00BF4FF4007000F016F893
:1020200048B10648406A10B10449486A80474FF4F5
:10203000007000F005F800BF10BD00006808002027
:102040000149086070470000140401400146002067
:102050000022074B1B6803EA0102054B14331B687F
:102060000B4013B10AB1012000E0002070470000CE
:10207000000401402DE9F041024600250026002021
:1020800000230024002791F803C00CF00F0591F8FD
:1020900003C00CF0100CBCF1000F03D091F802C08B
:1020A0004CEA050591F800C0BCF1000F31D014686E
:1020B00000202BE04FF0010C0CFA00F3B1F800C047
:1020C0000CEA03069E4220D183004FF00F0C0CFA5D
:1020D00003F7BC4305FA03FC4CEA040491F803C07F
:1020E000BCF1280F06D14FF0010C0CFA00FCC2F82D
:1020F00014C00AE091F803C0BCF1480F05D14FF0BD
:10210000010C0CFA00FCC2F810C0401C0828D1D306
:102110001460B1F800C0BCF1FF0F34DD546800203A
:102120002EE000F1080C4FF0010808FA0CF3B1F8AA
:1021300000C00CEA03069E4221D183004FF00F0C31
:102140000CFA03F7BC4305FA03FC4CEA040491F8CB
:1021500003C0BCF1280F05D100F1080C08FA0CF8F7
:10216000C2F8148091F803C0BCF1480F07D100F108
:10217000080C4FF0010808FA0CF8C2F81080401C57
:102180000828CED35460BDE8F081000010B50121CD
:10219000084600F04BF90121014800F003F810BD9A
:1021A00000023000F0B50A4600230024002100257B
:1021B00000F00046B6F1004F02D11D4EF16901E07A
:1021C0001B4E7168C0F3034583B200F44016B6F5A8
:1021D000401F08D121F07061154E766826F07066B8
:1021E000134F7E6012E000F48016B6F5801F06D112
:1021F000032606FA05F4A14341F0706106E0460D9E
:10220000360103FA06F6B14341F0706122B1460D82
:10221000360103FA06F6314300F00046B6F1004FEE
:1022200002D1034EF16101E0014E7160F0BD00008A
:10223000000001402DE9F84305460F461646984632
:102240001F48854201D104241FE01E48854201D168
:1022500008241AE01C48854201D1102415E01B48CF
:10226000854201D1202410E01948854201D1402443
:102270000BE01848854201D1802406E016488542CB
:1022800001D1841501E0BDE8F8831C2E01D0182E81
:1022900005D144F00100012100F0C8F803E001215C
:1022A000204600F0C3F8ADF800708DF803608DF89B
:1022B000028069462846FFF7DDFE00BFE3E7000025
:1022C00000080140000C01400010014000140140D2
:1022D00000180140001C01400020014070B50021A1
:1022E00000230F22C47804B3154C246804F4E0647E
:1022F000C4F5E064210AC1F10403CA40447804FA39
:1023000003F184781440214309010E4C0678A1554D
:10231000047804F01F050124AC4005786D11AD0070
:1023200005F1E025C5F8004109E0047804F01F0537
:102330000124AC40044D0678761145F8264070BD66
:102340000CED00E000E400E080E100E00249014320
:10235000024A1160704700000000FA050CED00E031
:102360002DE9F04104460D461646702C04DA1F484C
:1023700000EB0410807B10B90020BDE8F08135B17E
:102380002EB105FB06F01A490968884201D90020E0
:10239000F3E72F4616480068B0FBF5F0B0FBF6F8FF
:1023A0001821204604F0A2FF104901EB04114868EF
:1023B000002100F04EFADFF834C00CEB041C9CF84E
:1023C0000E30A8F1010C1FFA8CF2A7F1010C1FFAD4
:1023D0008CF1DFF818C00CEB041CDCF8040000F0F2
:1023E00013FC024800EB0410807BC6E7409900080C
:1023F0002C02002001460020034A506820F440408F
:1024000008435060704700000010024029B1064A9E
:10241000D2690243044BDA6104E0034AD269824381
:10242000014BDA61704700000010024029B1064AF2
:1024300092690243044B9A6104E0034A9269824321
:10244000014B9A61704700000010024029B1064A12
:10245000D2680243044BDA6004E0034AD268824344
:10246000014BDA60704700000010024030B50021D7
:102470000022002400232D4D6D6805F00C0121B1D0
:10248000042905D0082923D105E0294D056022E063
:10249000274D05601FE0254D6D6805F47012234D32
:1024A0006D6805F48034022505EB92421CB9214D7C
:1024B000554305600BE01D4D6D6805F400351DB1F9
:1024C0001C4D5543056002E0194D5543056002E07F
:1024D000174D056000BF00BF144D6D6805F0F00199
:1024E0000909154D6B5C0568DD4045600F4D6D6851
:1024F00005F4E061090A104D6B5C4568DD408560BC
:102500000A4D6D6805F46051C90A0B4D6B5C456856
:10251000DD40C560054D6D6805F44041890B074DF0
:102520006B5CC568B5FBF3F5056130BD001002407A
:1025300000127A0000093D00180200202802002045
:1025400021B1028842F04002028004E002884FF686
:10255000BF731A400280704710B50022028802F44F
:1025600041520B884C8823438C882343CC882343D7
:102570000C8923434C8923438C892343CC892343EF
:102580001A430280838B4FF2FF74234083830B8AAC
:10259000038210BD10B500F001F810BD0CB500208D
:1025A000019000903348006840F480303149086061
:1025B00000BF3048006800F4003000900198401CD3
:1025C0000190009818B90198B0F5A06FF1D1294891
:1025D000006800F4003010B10120009001E00020FC
:1025E00000900098012843D12348006840F0100073
:1025F000214908600846006820F00300086008468A
:10260000006840F0020008601A48406819494860B4
:102610000846406848600846406840F4806048606A
:102620000846406820F47C1048600846406840F442
:10263000E81048600846006840F08070086000BFFD
:102640000C48006800F000700028F9D00948406884
:1026500020F00300074948600846406840F0020047
:10266000486000BF0348406800F00C000828F9D11A
:102670000CBD00000010024000200240024800682B
:10268000401C0149086070479C01002010B50021E2
:1026900000200022214B5B6803F00C0121B10429CA
:1026A00006D0082928D107E01D4B1E4C236027E0E7
:1026B0001B4B1C4C236023E0184B5B6803F4701029
:1026C000164B5B6803F48032022303EB904022B97F
:1026D000154B4343134C23600DE0104B5B6803F430
:1026E000003323B1104B43430E4C236003E00C4BEB
:1026F00043430C4C236003E0094B0A4C236000BFAA
:1027000000BF064B5B68C3F30313084CE15C054B49
:102710001B68CB40034C236010BD0000001002403A
:1027200000127A002C02002000093D003002002037
:1027300010B51348006840F00100114908600846D0
:102740004068104908400E494860084600680E4934
:1027500008400B4908600846006820F480200860A3
:102760000846406820F4FE0048604FF41F0088606F
:10277000FFF710FF4FF000600449086010BD000033
:10278000001002400000FFF8FFFFF6FE08ED00E039
:1027900010B500BF0121084800F076F848B107489D
:1027A000006810B10549086880470121024800F01F
:1027B0004DF800BF10BD0000002C0140A80800200B
:1027C00010B500BF0121880700F05EF848B1064847
:1027D000406810B10449486880470121880700F02B
:1027E00035F800BF10BD0000A808002010B500BFDC
:1027F0000121084800F048F848B10748806810B146
:102800000549886880470121024800F01FF800BF91
:1028100010BD000000040040A808002010B500BF53
:102820000121084800F030F848B10748C06810B1ED
:102830000549C86880470121024800F007F800BF39
:1028400010BD000000080040A8080020CA43028212
:10285000704721B1028842F00102028004E0028840
:102860004FF6FE731A400280704731B1B0F8442031
:1028700042F40042A0F8442005E0B0F84420C2F33E
:102880000E02A0F84420704730B502460020002315
:102890000024158A05EA0103958905EA010413B1AC
:1028A0000CB1012000E0002030BD000070B5002414
:1028B00000220023058C4FF6FE7635400584028CFD
:1028C0008388048B4FF68F752C40B51E2C400D88E5
:1028D0002C43751E2A400D892A434D882A43144DE6
:1028E000A8420BD0134DA84208D0134DA84205D0E2
:1028F000124DA84202D0124DA84213D14FF6F775DF
:102900002A404D892A434FF6FB752A408D882A4379
:102910004FF6FF652B404FF6FF552B408D892B431B
:10292000CD892B4383800483CD888586028470BD46
:10293000002C0140003401400040014000440140AF
:10294000004801400A460021018B4FF6F7731940F9
:10295000114301837047000070B50024002200235A
:10296000058C4FF6EF7635400584028C8388048B06
:1029700048F6FF752C404FF6FF452C400D884FF66A
:10298000FF7606EA05252C434FF6DF752A400D89B0
:1029900006EA05152A434D8806EA05152A43154D12
:1029A000A84202D0144DA8421DD14FF67F752A408F
:1029B0004D894FF6FF7606EA05152A434FF6BF7597
:1029C0002A408D8806EA05152A434FF6FF352B402D
:1029D0004FF2FF752B408D8906EA85052B43CD8983
:1029E00006EA85052B4383800483CD88058702840E
:1029F00070BD0000002C0140003401400A46002157
:102A0000018B4FF2FF7319404FF6FF7303EA022365
:102A1000194301837047000070B500240022002391
:102A2000058C4FF6FF6635400584028C8388848BC5
:102A30004FF68F752C404FF6FC752C400D882C43BB
:102A40004FF6FF552A400D894FF6FF7606EA052519
:102A50002A434D8806EA05252A43154DA84202D08F
:102A6000144DA8421DD14FF2FF752A404D894FF6F3
:102A7000FF7606EA05252A434FF6FF352A408D8862
:102A800006EA05252A434EF6FF752B404DF6FF75E5
:102A90002B408D8906EA05152B43CD8906EA0515DD
:102AA0002B4383808483CD888587028470BD00009A
:102AB000002C0140003401400A460021818B4FF672
:102AC000F7731940114381837047000070B50022ED
:102AD00000230024058C4EF6FF7635400584038CD8
:102AE0008488828B48F6FF752A404FF6FF452A40BE
:102AF0000D884FF6FF7606EA05252A434DF6FF7549
:102B00002B400D8906EA05352B434D8806EA05352D
:102B10002B430B4DA84202D00A4DA84208D14BF6D8
:102B2000FF752C408D894FF6FF7606EA85152C43FC
:102B300084808283CD88A0F84050038470BD00005B
:102B4000002C0140003401400A460021818B4FF2E5
:102B5000FF7319404FF6FF7303EA02231943818381
:102B600070470000002202881D4B98420ED01D4B7A
:102B700098420BD0B0F1804F08D01B4B984205D043
:102B80001A4B984202D01A4B984204D14FF68F73D9
:102B90001A404B881A43174B984207D0164B98425D
:102BA00004D04FF6FF431A40CB881A4302808B882B
:102BB00083850B8803850A4B98420BD0094B9842BA
:102BC00008D00E4B984205D00D4B984202D00D4BC9
:102BD000984201D10B7A038601238382704700005B
:102BE000002C014000340140000400400008004077
:102BF000000C004000100040001400400040014064
:102C00000044014000480140F0B587B004460D463D
:102C100016461F464C48844231D0B4F1804F2ED026
:102C20004A4884422BD04A48844228D049488442AA
:102C300025D04948844222D0484884421FD0484881
:102C400084421CD04748844219D04748844216D059
:102C50004648844213D04648844210D045488442B6
:102C60000DD0454884420AD04448844207D04448A5
:102C7000844204D04348844201D007B0F0BD012112
:102C8000204600F081F8ADF81450ADF81060002037
:102C9000ADF81600ADF8120004A92046FFF762FF58
:102CA0007020ADF800000120ADF802000220ADF860
:102CB00008002548844202D02948844206D10020D9
:102CC000ADF80C00ADF80E00ADF80400012F06D0F1
:102CD000022F0DD0032F14D0042F24D11AE06946FF
:102CE0002046FFF7E3FD08212046FFF72BFE1AE000
:102CF00069462046FFF730FE08212046FFF77EFE9A
:102D000011E069462046FFF787FE08212046FFF7BD
:102D1000D3FE08E069462046FFF7D8FE082120468A
:102D2000FFF712FF00BF00BF01212046FFF791FD12
:102D30000548844202D00A48844203D1012120463A
:102D4000FFF793FD00BF98E7002C0140000400400E
:102D500000080040000C004000100040001400403B
:102D600000340140004C014000500140005401403B
:102D700000180040001C00400020004000400140BE
:102D8000004401400048014070B504460D464748E4
:102D9000844204D12946C014FFF748FB84E0B4F113
:102DA000804F04D129460120FFF730FB7CE04048EA
:102DB000844204D129460220FFF728FB74E03D48F5
:102DC000844204D129460420FFF720FB6CE03A48F6
:102DD000844204D129460820FFF718FB64E03748F5
:102DE000844204D129461020FFF710FB5CE03448F0
:102DF000844204D129462020FFF708FB54E03148E3
:102E0000844204D129464014FFF710FB4CE02E48C1
:102E1000844205D129464FF40020FFF707FB43E029
:102E20002A48844205D129464FF48010FFF7FEFA64
:102E30003AE02748844205D129464FF40010FFF7B5
:102E4000F5FA31E02348844204D129464020FFF7B7
:102E5000DDFA29E02048844204D129468020FFF78A
:102E6000D5FA21E01D48844204D129468015FFF798
:102E7000CDFA19E01A48844205D129464FF4803032
:102E8000FFF7D4FA10E01748844205D129464FF4E1
:102E90000030FFF7CBFA07E01348844204D12946FB
:102EA0004FF48020FFF7C2FA70BD0000002C0140F3
:102EB0000004004000080040000C004000100040EA
:102EC0000014004000340140004C0140005001401B
:102ED0000054014000180040001C00400020004049
:102EE00000400140004401400048014010B5024844
:102EF00001F0A8F910BD0000B005002010B502488F
:102F000001F0A0F910BD00004C06002010B50248E9
:102F100001F098F910BD0000E806002010B500226D
:102F2000002340F66A14A14200D100BF0A12012416
:102F30009440A3B2DC43048010BD21B1828942F4E5
:102F40000052828104E082894DF6FF731A4082812B
:102F5000704702460020B1F5007F00D100BF138802
:102F60000B400BB1012000E00020704770B5024615
:102F7000002400230025002040F66A16B14200D14B
:102F800000BFC1F3421501F01F03012606FA03F347
:102F9000012D02D19689334006E0022D02D1168A16
:102FA000334001E0968A33400C12012606FA04F4FD
:102FB0001688344013B10CB1012000E0002070BD30
:102FC000F0B50346002400260025002040F66A17CD
:102FD000B94200D100BF1846C1F3421401F01F06E8
:102FE000012707FA06F5012C01D10C3004E0022C70
:102FF00001D1103000E014301AB107682F43076088
:1030000002E00768AF430760F0BD00002DE9F0471C
:1030100086B005460E460024A24600BFA146002702
:10302000B08900B100BF2F462C8A4CF6FF700440D7
:10303000F08804432C82AC894EF6F3100440B0882B
:1030400031890843718908430443AC81AC8A4FF647
:10305000FF400440B0890443AC8201A8FFF706FAA0
:103060001F48874202D1DDF810A001E0DDF80CA076
:10307000A88900F4004040B10AEBCA0000EB0A1036
:1030800031684900B0FBF1F807E00AEBCA0000EB39
:103090000A1031688900B0FBF1F86420B8FBF0F049
:1030A00004012009642101FB1089A88900F4004073
:1030B00040B1322000EBC900B0FBF1F000F0070096
:1030C000044308E0322000EB09106421B0FBF1F06A
:1030D00000F00F0004432C8106B0BDE8F08700002B
:1030E0000038014001468888C0F308007047C1F3EA
:1030F000080282807047000070B5044625462E46BF
:103100000448A0EB660635462946204605F044FFF4
:1031100070BD0000865A375F70B50446084D2946D9
:10312000204604F009F806460021304606F07BF8F8
:1031300001D8304670BD0249304605F047FDF9E739
:10314000DB0FC94070B504460D46284605F0C4FEA5
:103150000646214605F020FF70BD000070B504460C
:103160000A49204605F032FD05460949284606F081
:103170005AF804D20649284606F0C0F800E028466E
:103180000546284600F006F870BD0000DB0FC93F79
:10319000DB0FC9402DE9F04106466549304605F090
:1031A000C7FE2DD26349304605F0F6FE07460021E2
:1031B00006F039F80CD85F49304605F0EDFE804640
:1031C0004FF07C5105F002FD074605F069FE0BE06B
:1031D0005849304605F0E0FE80464FF07C5106F03D
:1031E0008DF8074605F05CFE534951F820502846FB
:1031F00005F072FE0446514905F0CEFEBDE8F081AF
:103200004F49304605F094FE2ED24A49304605F02B
:10321000C3FE0746002106F006F80CD845493046A3
:1032200005F0BAFE80464FF07C5105F0CFFC074612
:1032300005F036FE0BE03F49304605F0ADFE804616
:103240004FF07C5106F05AF8074605F029FEC0F50C
:10325000C770394951F82050284605F03DFE044614
:10326000364905F099FEC9E73649304605F060FE5B
:103270002ED23049304605F08FFE0746002105F07A
:10328000D2FF0CD82B49304605F086FE80464FF021
:103290007C5105F09BFC074605F002FE0BE025493A
:1032A000304605F079FE80464FF07C5106F026F856
:1032B000074605F0F5FDA0F5C7701F4951F82050ED
:1032C000284605F009FE04461F4905F065FE95E70E
:1032D0001849304605F060FE0746002105F0A3FFBF
:1032E0000CD81449304605F057FE80464FF07C510B
:1032F00005F06CFC074605F0D3FD0BE00D493046A8
:1033000005F04AFE80464FF07C5105F0F7FF074676
:1033100005F0C6FDC0F54770074951F82050284612
:1033200005F0DAFD0446084905F036FE66E70000C0
:10333000DB0FC93FE65FFD42F895000817B7D138AB
:10334000DB0F4940E4CB964017B7D1B82DE9F04FD9
:1033500091B0FE4801F094FBFD4801F091FBFB4861
:1033600001F0BAFB80F00040FA490860F74801F02C
:1033700041FB80F00040F8490860F54801F03AFB55
:1033800080F00040F5490860F3480168F44800F017
:1033900081FCF4490860F1480168F34800F07AFCC8
:1033A000F2490860EB480068FFF7B6FE0446F048B3
:1033B0000168204605F0A2FFEE4908600846006853
:1033C00005F0D8FB0646EC4AEC4B04F071FD0446D0
:1033D00004F03CFDEA490860E2480068E9490860F9
:1033E000E7480468204603F059FDE74908600021DA
:1033F0002D2003F047FEE5480068012806D002288A
:1034000018D0032873D0042813D1D7E0E04800680F
:1034100064280BDA012000F095FBDE48DE490860E5
:10342000DB480068401CDA49086002E00220D74906
:10343000086052E1D348006805F09CFB06460F4641
:10344000D048006805F096FB8246D44AD44B05F07C
:1034500081F8804632463B4605F07CF8CDE908010C
:10346000C94801684FF07E5005F0B0FB804605F07A
:1034700081FB06460022CB4B05F06CF80446DDE9E3
:10348000082304F015FDCDE90C01BF48006805F0E4
:1034900071FB04460D46BB48006805F06BFB804697
:1034A000C14AC24B05F056F8064622462B4605F0A7
:1034B00051F8CDE90A01DDE90C2305F04BF8CDE91F
:1034C0000E0104F0C3FCB4490860AA48006803F088
:1034D000EBF8064605F04EFB0446B54AB54B04F042
:1034E000FDFF02D20320A9490860F6E0FFE70121B1
:1034F0002D2003F0C7FDB048006805F03BFB804677
:1035000089469848006805F035FB0646A84AA94B4D
:1035100005F020F8044642464B4605F01BF8CDE97D
:103520000C01A548006805F025FB04460D469148AE
:10353000006805F01FFB06460022A04B05F00AF8C4
:10354000804622462B4605F005F882468B469A486F
:10355000006805F00FFB04460D468448006805F03E
:1035600009FB8046924A964B04F0F4FF0646224639
:103570002B4604F0EFFF52465B46CDE9080105F00B
:103580000FFACDE90A01DDE90C2305F009FACDE9CE
:103590000E0104F05BFC804908607648006803F087
:1035A00083F8064605F0E6FA04460022854B05F04E
:1035B000CFF802D20420754908608EE07148006897
:1035C00005F0D8FA04460D466E48006805F0D2FAB8
:1035D0000646724A724B04F0BDFF22462B46CDE9E7
:1035E000080104F0B7FF80468946674801684FF03C
:1035F0007E5005F0EBFA064605F0BCFA04460022C0
:10360000684B04F0A7FF824642464B4604F050FC4C
:10361000CDE90C015C48006805F0ACFACDE9080181
:103620005948006805F0A6FACDE906015648006839
:1036300005F0A0FACDE904015348006805F09AFAB4
:10364000CDE902014F48006805F094FA564A5E4BF6
:10365000CDE9000104F07EFF8046DDE9022304F09D
:1036600079FF0646DDE9042304F074FF0446DDE932
:10367000062304F06FFF8246DDE9082304F06AFFA9
:10368000CDE90A01DDE90C2304F064FFCDE90E0168
:1036900004F0DCFB404908603948006803F004F896
:1036A000064605F067FA0446414A484B04F016FF07
:1036B00012D23448006802F0F7FF064605F05AFAC5
:1036C00004463B4A414B04F009FF05D201202F4933
:1036D000086000202E49086000BF00BF2E48006827
:1036E00080F000402C490860394801682A48006889
:1036F00005F099FD04D236480068274908600FE0BC
:103700003348006880F0004423480168204605F0F3
:103710008AFD05D22E48006880F000401E490860EE
:103720000A221A4801682B4801F0D3F809212948D8
:1037300001F0B9F80F48006805F01CFA04460220B1
:1037400022460B460090234846E00000B0020020CD
:10375000580200200400002028000020340000202F
:10376000400200202C0000204C0200203C000020E1
:1037700000000020240000206F1283C0CA210940ED
:1037800040000020440000200C00002054000020D5
:103790005C000020CDCC4C3F60000020B81E85EBC3
:1037A00051B87E3F000021C079E9263108AC6C3F5A
:1037B0009A9999999999B93F100000200000F83F13
:1037C0009999A93F0000D03F08AC7CBF9999C93FA7
:1037D0001C0000204C06002001F06EF809213B4837
:1037E00001F061F83A48006805F0C4F90446022087
:1037F00022460B460090354801F05EF80921334817
:1038000001F051F83348006805F0B4F9044602208D
:1038100022460B4600902D4801F04EF809212B4816
:1038200001F041F82C48006805F0A4F90446022094
:1038300022460B460090254801F03EF80921234816
:1038400001F031F825480068FFF766FC064605F0F0
:1038500091F90446022022460B4600901B4801F0D5
:1038600092F81F4802F0C0FD00211E48006805F0D4
:10387000DAFC08D21C4801681A48006805F0A6F96D
:10388000184908600DE000211648006805F050FB5B
:1038900007D2154801681348006805F02FFD11494B
:1038A00008600D48006802F0FFFE04460F4905F06D
:1038B000BAFC02D200200B4908600A480168084897
:1038C00002F026FC11B0BDE8F08F00004C0600208D
:1038D000280000202C0000203C00002004000020D4
:1038E0000803002060000020300000200000484253
:1038F0002DE9F0415448554908605548554908603C
:1039000055485649086010212D2003F0EFFC54491A
:10391000544800F0C1FD5449544800F0BDFD5149E0
:10392000534801F015F9534853498860084600F0A0
:10393000CDFA51494E4801F077FB50484C49086395
:10394000002081F84F0081F85000012081F84D00DF
:103950004B48C1F8B4004B494548C0F8B8100021A5
:10396000C0F8BC104848424908644848C1F8FC0007
:1039700047493F48C0F8C01046483D4988644FF465
:10398000E131454800F087FC4349394801F024F90A
:1039900001203749C1F82401084602F039FB012211
:1039A0003E49334802F09AFC3149D1F8200105F034
:1039B000E1F8064600223A4B04F036FB044604F0D8
:1039C00045FA3849086038A33B4A54213B4802F085
:1039D000DCFD3BA1304800F0BAFF3DA12E4800F0CD
:1039E000B6FF4FF4FA7000F0ADF8002422E01F4853
:1039F00001F072F8414908601C4800F0FBFF4049A3
:103A00000860184801F068F83E490860154800F061
:103A1000F1FF3D4908603A4801683C4800F03AF936
:103A20003B490860384801683A4800F033F93A49A0
:103A30000860641CB4F57A7FD9DB38A1164800F021
:103A400094FFBDE8F08100003333B33F1000002045
:103A5000CDCCCCBD180000209FABAD3B14000020A6
:103A6000DC07002058020020F8070020B0020020E8
:103A70000803002000004041640400200000404092
:103A8000CDCC4C3E000020410000C0400AD7233C72
:103A900000007A44000048424C06002000E440C682
:103AA00000001C4050000020746172676574206142
:103AB0006E676C6500000000593B00089C04002004
:103AC0004D6F746F722072656164792E0000000082
:103AD0005365742074686520746172676574206131
:103AE0006E676C65207573696E67207365726961B6
:103AF0006C207465726D696E616C3A000400002080
:103B0000280000203800002034000020400200205F
:103B10002C0000204C0200203C00002073746174D3
:103B2000652C6572726F722C76656C2C665F76659B
:103B30006C2C626173655F76656C2C616E676C6579
:103B40000000000010B50446204603F065FA10BDE1
:103B500010B503F0ABFB10BD10B504462246024978
:103B6000024802F036FD10BD000000209C04002039
:103B700010B50549012200231C4601608281837330
:103B8000446000BF10BD000000093D002DE9F04F6A
:103B900089B006460F46904638683946C26806A87E
:103BA00090470021089805F047F90FD1069C30484E
:103BB000079905F0F1F981462E48069905F0ECF9D0
:103BC0008246494605F002F8054626E0DDE9060191
:103BD00004F0FCFF0090089904F0F8FF83462649A2
:103BE00005F0DAF982465146069805F087FB8146D2
:103BF0005146079805F082FB01904C461C480199FC
:103C000005F0CAF9834649461A4805F0C5F95946F0
:103C1000009004F0DBFF054600BF4046FFF79EFA28
:103C200005904046FFF7B6FA04902846049905F03F
:103C3000B3F981462046059905F0AEF9824649461A
:103C400004F0C4FF02902046049905F0A5F98146CE
:103C50002846059905F0A0F98246494605F04EFB35
:103C60000390DDE90201C6E9000109B0BDE8F08F6B
:103C70003ACD933F3ACD133FABAAAA3E70B5044666
:103C80000D4625600020A060FFF762FF60602046BF
:103C900070BD00002DE9F84F04460D46FFF758FFB0
:103CA00006466168701A05F02FF982461B4905F037
:103CB00073F981460021484605F03AF902D2DFF84F
:103CC000609009E01749484605F0ADFA04D2A560B6
:103CD00066602846BDE8F88F4946206804F076FF04
:103CE00082465146206804F0E5FF074639464FF00A
:103CF0007E5005F003FB8346294605F04DF98246C8
:103D00003846A16805F048F95146009004F05EFF7E
:103D10008046C4F8088066604046DBE7BD378635DC
:103D20006F12833A9A99993E2DE9F04704460D4661
:103D300016461F46DDE9088925606660A760C4F85D
:103D40000C80C4F8109000206061A061E061FFF772
:103D5000FFFE20622046BDE8F08700002DE9FF5FEE
:103D600004460F46FFF7F4FE8046216AA8EB0100E7
:103D700005F0CAF88346524905F00EF98146002144
:103D8000484605F0D5F805D94FF07C51484605F076
:103D90004AFA01D2DFF82C913946206805F0FCF888
:103DA00003903846616904F011FF0290494660684B
:103DB00005F0F2F84FF07C51009005F0EDF801901D
:103DC000029905F0E9F88346E16904F0FFFE054633
:103DD000206980F0004B2946584605F024FA03D2AA
:103DE000206980F0004007E02846216905F01BFAB1
:103DF00001D2206900E0284605463846616905F091
:103E00007DFA0290A16805F0C7F88346494604F0A0
:103E100051FF82462946039804F0D8FE8346514656
:103E200004F0D4FE0646206980F0004B3146584627
:103E300005F0F9F903D2206980F0004007E0304630
:103E4000216905F0F0F901D2206900E0304606460C
:103E50000021E06805F0E7F929D23046A16905F0B4
:103E60004DFA4946029004F025FF83465846E16822
:103E700005F0D9F909D24946E06805F08DF80290BD
:103E8000A16904F0A3FE064610E0E06880F000405F
:103E90005946029005F0C7F908D24946E06805F096
:103EA0007BF80290A16905F01FFA064600BFE561A4
:103EB000A6616761C4F82080304604B0BDE8F09F79
:103EC000BD3786356F12833A7047000070B50446DF
:103ED000A06A04F09AFA05460022274B04F0FCF988
:103EE00004D094F82800102103F000FAE06A04F0EE
:103EF0008CFA05460022204B04F0EEF904D094F829
:103F00002C00102103F0F2F9206B04F07EFA054634
:103F10000022194B04F0E0F904D094F8300010218D
:103F200003F0E4F9E06804F025FE05460022124B98
:103F300004F0D2F904D0D4E9021005F074F901D2EA
:103F4000A068E060207F44F620624FF47A71FEF7AB
:103F500007FA94F8200044F620624FF47A71FEF7D5
:103F6000FFF994F8240044F620624FF47A71FEF7CA
:103F7000F7F9002070BD0000801CC8C070B5044671
:103F8000A06A04F042FA05460022184B04F0A4F996
:103F900005D094F8341094F8280003F073F8E06A20
:103FA00004F033FA05460022104B04F095F905D0D1
:103FB00094F8341094F82C0003F064F8206B04F0AB
:103FC00024FA05460022094B04F086F905D094F83E
:103FD000341094F8300003F055F8206800231A4696
:103FE0001946C5682046A84770BD0000801CC8C09F
:103FF0002DE9F84F04460D461646994600212846FD
:1040000004F096FF01D2002007E02846E16805F0A1
:104010000AF901D2E06800E0284605460021304652
:1040200004F086FF01D2002007E03046E16805F089
:10403000FAF801D2E06800E0304606460021484622
:1040400004F076FF01D2002007E04846E16805F061
:10405000EAF801D2E06800E0484681462846A168B7
:1040600004F028FE0746002104F062FF01D2002080
:1040700010E02846A16804F01DFE07464FF07E516F
:1040800005F0D1F802D24FF07E5003E02846A16837
:1040900004F010FE20613046A16804F00BFE0746D4
:1040A000002104F045FF01D2002010E03046A16855
:1040B00004F000FE07464FF07E5105F0B4F802D23E
:1040C0004FF07E5003E03046A16804F0F3FD6061DC
:1040D0004846A16804F0EEFD0746002104F028FFE1
:1040E00001D2002010E04846A16804F0E3FD074635
:1040F0004FF07E5105F097F802D24FF07E5003E06A
:104100004846A16804F0D6FDA061206904F032FDA4
:1041100007460022184B04F01DFA824604F048F9C5
:1041200080B20090207F009903F012FE606904F0D5
:1041300021FD07460022104B04F00CFA824604F0E1
:1041400037F980B2009094F82000009903F000FE47
:10415000A06904F00FFD07460022074B04F0FAF9AE
:10416000824604F025F980B2009094F8240000996A
:1041700003F0EEFDBDE8F88F00408F4070B50446B7
:10418000206800231A461946C5682046A847A06A39
:1041900004F03BF9054600221B4B04F09DF80AD0C1
:1041A00094F834200AB9012200E00022114694F864
:1041B000280002F067FFE06A04F027F905460022B4
:1041C000114B04F089F80AD094F834200AB901227E
:1041D00000E00022114694F82C0002F053FF206BFF
:1041E00004F013F905460022074B04F075F80AD0D5
:1041F00094F834200AB9012200E00022114694F814
:10420000300002F03FFF70BD801CC8C0F0B505ACA7
:1042100070CC084F084F0760012780F83470C161E7
:10422000026243628462C5620663044F8760044F82
:10423000C760F0BD8CA10008A8A1000800004041A3
:1042400000E440C670B5044640F225512069FEF7EF
:104250008DFEF8B12069FEF745FFC6B2218B491CDF
:1042600088B2C11700EB5161C911A0EBC1118DB229
:10427000608BA84204D0218B04F11C004654258396
:10428000606908B16069804740F225512069FEF7F6
:1042900045FE00BF70BD70B504460D46002229469C
:1042A000204600F001F870BDF8B504460D461646EC
:1042B00003200123324629460090204600F002F8F0
:1042C000F8BD00002DE9F04F87B004468A46154638
:1042D0009B463F49206988420CD1012144F20400E9
:1042E000FEF7A4F84FF400774FF48068394E4FF092
:1042F000250925E03849206988420ED1012148046A
:10430000FEF784F801210420FEF790F804274FF00F
:104310000808304E4FF0260912E0304920698842E3
:104320000ED101218804FEF771F801210820FEF763
:104330007DF84FF480674FF40068294E4FF027094D
:10434000ADF8187003208DF81A0018208DF81B00A6
:1043500006A93046FDF78EFEADF8188004208DF8D2
:104360001B0006A93046FDF785FE8DF804908DF8F8
:1043700005B010988DF8060001208DF8070001A8FF
:10438000FDF7ACFFCDF808A005F47040ADF80C00C7
:1043900005F47060ADF8100005F0F0000002ADF813
:1043A0000E000020ADF814000C20ADF8120002A998
:1043B0002069FEF72BFE012240F225512069FEF70D
:1043C000FFFD01212069FEF7B8FD07B0BDE8F08FC1
:1043D000003801400008014000440040004800400F
:1043E000000C014070B504460D4600BF80212069D5
:1043F000FEF7AFFD0028F9D029462069FEF777FEC9
:10440000284670BD00BF094A02600022426000BF1A
:10441000074A02604FF47A72826000BF054A026068
:1044200001610022426142830283704714A20008A6
:1044300054A20008C4A1000810B504462046A16A91
:1044400000F064F810BD00002DE9F041044620465C
:10445000FFF7F2FF074604F03FFD0646616A04F0ED
:1044600029FC0546024904F097FDBDE8F0810000F3
:10447000DB0FC94010B504460023002207E001F01D
:10448000010008B1581CC3B24908501CC2B2102A1E
:10449000F5DB03F0010010BDF0B58DB004460D460C
:1044A000656508A80121227F236A002703608181B6
:1044B0008273476000BF00BF06460068311D0EC909
:1044C00030340FC4403C317C4020015594F82C001E
:1044D000102102F00BFF04F130000FC8CDE90523D5
:1044E000CDE903014020005D8DF81C000799CDE95E
:1044F00000311346606DDDE9031200F0D1FC94F841
:104500002C00012102F0BEFD0DB0F0BDF0B587B06A
:1045100004460D462E46E06C002805DD94F84C104C
:104520000120884040EA0506A06C002807DD3146DE
:104530002046FFF79FFF94F848108840064304F197
:1045400030000FC802AF0FC74020005D8DF8180083
:1045500006992C34CDE900311346A06ADDE9021238
:1045600000F097FC2078002102F08CFDB1B2A06A27
:1045700002F082F82078012102F084FD012002F08F
:1045800057FD2078002102F07DFD0021A06A02F095
:1045900073F807462078012102F074FDA06A00F04C
:1045A00077FC94F82400401C217E2C3C401AC74024
:1045B0000C48007800F0010070B90A4802F0BAF81F
:1045C00050B1606CC0F110014FF6FF700841064910
:1045D00008600448AFF300800349096807EA010056
:1045E00007B0F0BDB8000020BC0000200FB42DE9DA
:1045F000F05F8246504600F07FFA82461F48CAF8B4
:1046000000000AF13000FFF7B3FAA0F1300A129867
:10461000CAF82C000E9808B10E9801E043F6FF701E
:10462000CAF8280000244FF08045DDF834B0584621
:1046300003F0EBFE064632460B462046294602F0C2
:104640009BFE804603F002FCCAF824000B98CAF8CF
:104650001C000C98CAF820000D98CAF84400119864
:10466000CAF848001098CAF84C000F98CAF85000D1
:104670005046BDE8F01F5DF814FB0000E8A10008FB
:104680002DE9FF5F86B014461D46DDF850B00026C8
:10469000002213462046294604F05AF802D220464A
:1046A000294602E0204685F00041494A494BCDE9C0
:1046B000020104F04DF814D8002213462046294682
:1046C00003F00CFF04D22D21069800F0ECF806460A
:1046D00041A1069800F0DEF8064430460AB0BDE875
:1046E000F09F002213462046294603F0F7FE06D22B
:1046F0002D21069800F0D7F8064485F000450027E4
:10470000DFF8E480002003900BE00022374B3846AE
:10471000414603F089FC074688460398401CC0B216
:10472000039003985845F0DB3A4643462046294615
:1047300003F0BEFB04460D462046294604F056FE13
:10474000CDE90401DDE9040103F076FE22462B46A3
:10475000CDE9020104F032F881468A460A20009031
:10476000DDE90423069800F0BFF80644BBF1000F12
:1047700004DD1FA1069800F08DF806441EE000221B
:104780001A4B4846514603F0E5FE81468A464846A4
:10479000514603F0DDFD03900A220399069800F0CC
:1047A00098F80644039803F030FE4A465346CDE994
:1047B000000104F003F881468A4600BFBBF1000007
:1047C000ABF1010101F0FF0BD9DC304686E70000B8
:1047D000800350726C92DF433C6C617267652064A9
:1047E0006F75626C653E00000000E03F00002440F1
:1047F0002E0000002DE9F04391B0814614461D467D
:10480000189F0026B046002184EA01006940084351
:1048100007D13021484600F046F8012011B0BDE82C
:10482000F08311E03A46002320462946FBF731FD8C
:104830003146761C01A842543A46002320462946B8
:10484000FBF727FD04460D46002184EA010069407C
:104850000843E7D112E0701E01AA105C0A2803DAAF
:10486000701E105C303003E0701E01AA105C3730FF
:10487000C1B2484600F017F88044761E002EEAD1F7
:104880004046CBE770B504460D462946204600F069
:1048900001F870BD70B504460D462068294642688F
:1048A0002046904770BD70B504460D4620682946E5
:1048B00002682046904770BDF8B5064614461D466E
:1048C000069FF8B222462B4600903046FFF7D8FEEE
:1048D000F8BDF8B506460C4615462246E3173046A5
:1048E000009500F001F8F8BDF8B5064614461D46DF
:1048F000069F2FB9E1B23068026830469047F8BD94
:1049000000210846611A75EB000007DA2D213046B8
:10491000FFF7C9FF0022644262EB0505F8B22246A8
:104920002B4600903046FFF765FFE8E770B5054677
:104930000C46002606E014F8011B28680268284689
:104940009047761C20780028F5D1304670BD70B5B0
:1049500005460E4631462846FFF794FF0446284692
:1049600000F039F80444204670BD70B505460E4687
:1049700031462846FFF78EFF0446284600F02BF804
:104980000444204670BD2DE9F843074615461E46EF
:10499000DDF820802A4633463846CDF80080FFF700
:1049A0008BFF0446384600F016F804442046BDE864
:1049B000F8832DE9F04105460E4617463A46314642
:1049C0002846FFF786FF0446284600F004F8044412
:1049D0002046BDE8F08170B505460D212846FFF759
:1049E00062FF04460A212846FFF75DFF0444204683
:1049F00070BD00002DE9F04704462269A168881ABD
:104A000003F003FD0746174A174B03F0A3FD0546C5
:104A100003F01CFA81460021484604F089FA01D8C7
:104A2000DFF84890E168606804F068FC0746D4E964
:104A30000512881A04F050FA80460D4904F0ACFAC9
:104A40000646394604F0C2F80546494604F032F9F4
:104A500082466068E0606069A061A068206150469D
:104A6000BDE8F0878DEDB5A0F7C6B03E6F12833A72
:104A7000DB0FC94001460020704701464868704777
:104A80002DE9F04104462068C16920468847064662
:104A9000FFF75EF8A0603046616804F02FFC054621
:104AA000284600BF20F0004100BF0F4609493846A4
:104AB00004F0B9FB0BD20021284604F0B4FB02D26B
:104AC0004FF0FF3000E001206169084460616660DA
:104AD000BDE8F0817CD9A04070B50446606904F05F
:104AE000FBF90646034904F057FA0546616804F0ED
:104AF0006DF870BDDB0FC9400449016000214160C1
:104B00008160C160016141618161704728A2000834
:104B100010B5064C046000BF054C046080F85430AA
:104B200080F8551080F8562010BD0000A8A200089B
:104B300078A2000805490160002180F8551080F82E
:104B4000561000BF00BF00BF7047000078A20008E9
:104B5000C0F8301170472DE9F0410446D4F8300117
:104B600010B9A068BDE8F081D4F83001026851683E
:104B700088478046414604F58470FFF78BF8064667
:104B8000D4F8240104F0A8F90746314604F004FAE9
:104B90000546D4F81C1104F0B1FBE3E72DE9F04120
:104BA0000446D4F8300110B92069BDE8F081D4F88A
:104BB00030010268D16888470746394604F1FC0095
:104BC000FFF768F80546D4F8240104F085F9064695
:104BD000294604F0E1F9E8E770B504460D46C4F84B
:104BE0003851D4F8380120B102A1D4F83801FFF7C8
:104BF000AEFE70BD4D4F543A204D6F6E69746F72AA
:104C000020656E61626C6564210000002DE9F04151
:104C10000446D4F8300110B9E068BDE8F081B4343E
:104C2000E06F026811688847074654F8782C216FB6
:104C300001FB02F004F050F98046394604F0ACF96B
:104C40000646E16EB43C04F059FB0546FEF764FAF3
:104C5000E3E700001CB5044644482060002084F8C7
:104C60004C00012084F84E00414800210B46414A87
:104C7000CDE90010404904F15400FFF755F8A0F1C8
:104C800054043B4800210B463A4ACDE900103A490A
:104C900004F17800FFF748F8A0F17804374904F1EF
:104CA0009C00FEF7EBFFA0F19C04344904F1A8003E
:104CB000FEF7E4FFA0F1A8042D4831490023314A52
:104CC000CDE900104FF07C5104F1B400FFF72CF84F
:104CD000A0F1B4042C4800210B460A46CDE900108F
:104CE000014604F1D800FFF71FF8A0F1D8042349CA
:104CF00004F1FC00FEF7C2FFA0F1FC04002104F562
:104D00008470FEF7BBFFA0F584740020C4F8140182
:104D1000C4F818011D48C4F820011D48C4F8240136
:104D20006420C4F82801632084F82C010020C4F812
:104D30003C011548A0640E482064164860644FF09A
:104D40007E5060630C482063002084F84D00606052
:104D50002062002161626061E162A062C4F83801F2
:104D6000C4F83001C4F8340120461CBD88A20008F4
:104D70000000404100009643000040400AD7A33B9A
:104D800000007A44000020410000A04100E440C639
:104D9000C7CFFFFFCDCC4C3E70B504460D46012D6C
:104DA00002D10021618201E080216182211D206801
:104DB000FDF7D2FB01212068FDF7C2FB70BD2DE994
:104DC000F04104460F4600212068FDF7B9FB37B1DA
:104DD000012F07D0022F08D0032F0CD108E00025A7
:104DE000002608E00025012605E00225002602E055
:104DF0000225012600BF00BF6581A681211D206814
:104E0000FDF7AAFB01212068FDF79AFBBDE8F081C0
:104E10002DE9F05F04460F4690469946DDE90AAB5E
:104E200000213846FDF78CFBBAF1000F09D0BAF12A
:104E3000010F09D0BAF1020F09D0BAF1030F0CD15A
:104E400008E00025002608E00025012605E00225EF
:104E5000002602E00225012600BF00BF0020A0803E
:104E6000A4F80680A4F808906581A681A4F80EB085
:104E70000C9820820D9860820321A182211D384662
:104E8000FDF76AFB01213846FDF75AFBBDE8F09FAC
:104E9000704710B5044601212068FDF751FB10BD95
:104EA0000FB410B50446204600F016F820460399CA
:104EB00000F088F8BDF818102046FFF76DFF9DF848
:104EC0001A102046FFF77BFF01212068FDF738FB11
:104ED00010BC5DF814FB000010B586B004463349E1
:104EE0002068884215D132480068A061012141F252
:104EF0000400FDF79BFAE020ADF8140018208DF8AF
:104F0000170003208DF8160005A92A48FDF7B2F80E
:104F10003BE02949206888421AD1254800684008AA
:104F2000A06101218803FDF771FA01210820FDF736
:104F30007DFA4FF46040ADF8140018208DF817008A
:104F400003208DF8160005A91C48FDF793F81CE016
:104F50001B492068884218D1154800684008A061A4
:104F60000121C803FDF752FA01210820FDF75EFA7E
:104F70003820ADF8140018208DF8170003208DF8A4
:104F8000160005A90D48FDF775F8002010214A010B
:104F9000CDE90002CDE9021093004FF48272204661
:104FA0002168FFF735FF06B010BD0000003001405A
:104FB0002C0200200008014000380040000C014095
:104FC000003C00402DE9F04106460F46B069B0FBB9
:104FD000F7F085B2022D01DC002418E0042D01DC7D
:104FE000082414E0082D01DC102410E0102D01DC51
:104FF00018240CE0202D01DC202408E0402D01DCE9
:10500000282404E0802D01DC302400E038243482A0
:10501000311D3068FDF7A0FA01213068FDF790FAE4
:10502000BDE8F08101607047C0F840117047000092
:105030002DE9FC5F04460126D4F8380120B1A2A175
:10504000D4F83801FFF783FCD4F8240103F0DDF92C
:1050500007460022A14B03F03FF979D1D4F8300183
:1050600002689169884718B1204600F05FFF064644
:1050700016B93046BDE8FC9F002519E0284603F02C
:105080002BFF9749009003F087FF8346954903F073
:1050900011FE8146944903F099FD80464346002263
:1050A0002046216B00F016FA0220FEF74BFD6D1C26
:1050B000B5F5FA7FE2DDD4F830010268516988471E
:1050C000D4F8300102685168884782464FF4FA7577
:1050D00019E0284603F000FF8149009003F05CFFCF
:1050E0008346804903F0E6FD81467F4903F06EFD6B
:1050F0008046434600222046216B00F0EBF9022057
:10510000FEF720FD6D1E002DE3DAD4F830010268B1
:1051100051698847D4F83001026851688847019086
:1051200000231A461946204600F0D4F9C820FEF79D
:1051300009FD5046019903F07FFE0AD1D4F83801E9
:1051400020B16AA1D4F83801FFF701FC002091E7F3
:1051500065E05046019903F0EBFE0CD2D4F838011B
:1051600020B16AA1D4F83801FFF7F1FB4FF0FF300E
:10517000C4F824010AE0D4F8380120B16AA1D4F8B7
:105180003801FFF7E4FB0120C4F82401D4F838010A
:1051900020B16CA1D4F83801FFF774FB5046019997
:1051A00004F0ACF8054601F084FA0746E06B03F022
:1051B00093FE8346394603F0EFFE8146484904F0EA
:1051C0009DF8804601F075FA05464FF07C5104F0D9
:1051D0002AF81BD2D4F8380120B15EA1D4F83801E6
:1051E000FFF750FBD4F83801C0B139463C4803F012
:1051F00061FD054603F0BEFC804604200090424657
:105200000B46D4F83801FFF7BEFB07E0D4F83801AD
:1052100020B156A1D4F83801FFF799FB07E0D4F884
:10522000380120B152A1D4F83801FFF790FBD4F82F
:10523000200103F09FFC07460022284B03F04CF8A6
:1052400038D1294B00222046216B00F043F94FF45E
:105250002F70FEF777FCD4F8300102685169884757
:105260000020C4F820012046FFF7D0FCC4F820013C
:105270001420FEF767FCD4F8380188B142A1D4F8B5
:105280003801FFF7FFFAD4F8200103F073FC07465A
:10529000022000903A460B46D4F83801FFF773FB22
:1052A00000231A461946204600F014F9C820FEF7DC
:1052B00049FC07E0D4F8380120B139A1D4F838010D
:1052C000FFF745FB3046D5E64D4F543A20416C6917
:1052D000676E2073656E736F722E0000801CC8C0ED
:1052E000DB0FC9400000FA43E4CB96404D4F543ADF
:1052F000204661696C656420746F206E6F74696309
:1053000065206D6F76656D656E7400004D4F543A83
:105310002073656E736F725F646972656374696F21
:105320006E3D3D43435700004D4F543A2073656E28
:10533000736F725F646972656374696F6E3D3D433C
:10534000570000004D4F543A205050206368656369
:105350006B3A20006661696C202D20657374696D5D
:10536000617465642070703A000000004F4B2100AA
:105370004D4F543A20536B69702064697220636109
:105380006C69622E000000004D4F543A205A65723D
:105390006F20656C65632E20616E676C653A200036
:1053A0004D4F543A20536B6970206F666673657475
:1053B0002063616C69622E002DE9FE4F04460D46A4
:1053C000FEF7C6FB8146D4F85811A9EB010003F0A3
:1053D0009BFD07463C4903F0DFFD82460021504615
:1053E00003F0A6FD05D94FF07C51504603F01BFF9A
:1053F00001D2DFF8D8A05146A06C03F0CDFD834662
:1054000001F052F907462846A16803F077FF83466A
:1054100001F04AF98046394603F005FF2ED2A06C10
:1054200001F042F902902846A16803F067FF0021CD
:10543000009003F07DFD02D24FF0FF300BE02846D4
:10544000A16803F05BFF0021009003F0ECFE01D2A5
:10545000012000E00020019003F03EFD8346029908
:1054600003F09AFD8046514603F096FD0746A16879
:1054700003F0ACFBA060A06C206102E0A5600020FE
:105480002061266CA06B03F075FB07460022104BD1
:1054900002F022FF04D0A16B606C03F07DFD064694
:1054A000A068FDF739FE8046E16BFDF74BFE07462D
:1054B0003B4600223146204600F00CF8C4F85891D3
:1054C0003046BDE8FE8F0000BD3786356F12833A47
:1054D000801CC8C01FB592B0129890F84D000028EB
:1054E0006FD001286ED0022802D003286BD1F1E0E2
:1054F000FE49159803F06AFB0390FDF70DFEFC4989
:10550000049003F0D7FBFB49059003F045FD06909E
:1055100003F0C6FC1090129890F84E0048B1129813
:10552000D0F84001C0684FF08041069003F0C2FB04
:1055300000E013981190109800EB4000EE4951F8EC
:105540002000E8BBDDE91101C1F84401109800EB2F
:105550004000E94901EB80004068049003F0BCFC86
:105560000590139903F018FD0690119903F02EFB96
:105570001299C1F84801109800EB4000DE4901EB98
:1055800080008068049003F0A7FC0590139903F055
:1055900003FD0690119903F019FB1299C1F84C0113
:1055A0001298D0F8400106901298D0F84001006897
:1055B000006901231A4600210590DDE9054003E05A
:1055C00004E076E155E253E2A04782E0109800EB58
:1055D0004000C94901EB80004068E0BB109800EB37
:1055E000400051F82000049003F076FC05901399D8
:1055F00003F0D2FC0690119903F0E8FA1299C1F871
:105600004401DDE91101C1F84801109800EB4000A8
:10561000B94901EB80008068049003F05DFC0590BF
:10562000139903F0B9FC0690119903F0CFFA12997F
:10563000C1F84C011298D0F8400106901298D0F8A9
:105640004001006800690123002219460590DDE948
:105650000540A0473DE0FFE7109800EB4000A64959
:1056600051F82000049003F037FC0590139903F0E3
:1056700093FC0690119903F0A9FA1299C1F844011C
:10568000109800EB40009C4901EB800040680490BA
:1056900003F022FC0590139903F07EFC069011990B
:1056A00003F094FA1299C1F84801DDE91101C1F83B
:1056B0004C011298D0F8400106901298D0F84001A1
:1056C000006800690023012211460590DDE90540CC
:1056D000A04764E38549159803F078FA0390FDF735
:1056E0001BFD8349049003F0E5FA8449059003F01B
:1056F00053FC069003F0D4FB1090129890F84E00E3
:1057000048B11298D0F84001C0684FF0804106902F
:1057100003F0D0FA00E013981190109800EB4000CD
:10572000774951F82000E8BBDDE91101C1F84401D7
:10573000109800EB4000724901EB80004068049033
:1057400003F0CAFB0590139903F026FC069011990B
:1057500003F03CFA1299C1F84801109800EB4000A0
:10576000674901EB80008068049003F0B5FB059069
:10577000139903F011FC0690119903F027FA12997E
:10578000C1F84C011298D0F8400106901298D0F858
:1057900040010068006901231A4600210590DDE9F7
:1057A000054000E001E0A04782E0109800EB4000D7
:1057B000534901EB80004068E0BB109800EB4000CB
:1057C00051F82000049003F087FB0590139903F033
:1057D000E3FB0690119903F0F9F91299C1F844011D
:1057E000DDE91101C1F84801109800EB400044497F
:1057F00001EB80008068049003F06EFB0590139924
:1058000003F0CAFB0690119903F0E0F91299C1F870
:105810004C011298D0F8400106901298D0F840013F
:10582000006800690123002219460590DDE9054062
:10583000A0473DE0FFE7109800EB4000304951F8E9
:105840002000049003F048FB0590139903F0A4FB9B
:105850000690119903F0BAF91299C1F84401109811
:1058600000EB4000264901EB80004068049003F003
:1058700033FB0590139903F08FFB0690119903F009
:10588000A5F91299C1F84801DDE91101C1F84C01EF
:105890001298D0F8400106901298D0F840010068A4
:1058A00000690023012211460590DDE90540A0476B
:1058B00075E21598FDF730FC15901598FDF74EFC34
:1058C0000F901598FDF766FC0E9013990E9803F053
:1058D00063FB069014990F9803F05EFB0590069900
:1058E00003F00CFD1299C1F850010BE0920A063F3B
:1058F000DB0FC9400000C040C00000200000404154
:105900000801002013990F9803F046FB06901499A4
:105910000E9803F041FB0590069903F057F9129990
:10592000C1F854011298D0F84001C0684FF080418E
:10593000069003F0BFF911901298D0F8500106902C
:10594000119903F043F91299C1F844011298D0F863
:10595000540101460390F84803F01EFB059012988D
:10596000D0F85001014603904FF03F4003F014FB84
:105970000490059903F02AF90690119903F026F98D
:105980001299C1F848011298D0F8540101460390C9
:10599000E94803F001FB05901298D0F85001014648
:1059A00003904FF03F4003F0F7FA0490059903F09D
:1059B000A5FC0690119903F009F91299C1F84C0160
:1059C000129890F84E0078BB1298D0F84C010490D1
:1059D0001298D0F848010390049903F0A9FA03D271
:1059E0001298D0F8480102E01298D0F84C010590C6
:1059F0001298D0F844010490059903F099FA03D263
:105A00001298D0F8440113E01298D0F84C01059098
:105A10001298D0F848010490059903F089FA04D24D
:105A20001298D0F8480103E022E01298D0F84C0117
:105A300006901298D0F844010590069903F05EFC98
:105A40001299C1F844011298D0F8480105900699BE
:105A500003F054FC1299C1F848011298D0F84C0197
:105A60000590069903F04AFC1299C1F84C0100BF59
:105A700095E10021149803F0DFF92BD01399084623
:105A800003F08AFA04901499084603F085FA03900B
:105A9000049903F09BF80590FDF72EFB06901298F1
:105AA000D0F84001C06801460590069803F002F95D
:105AB0000D901398039014980490DDE9030101F010
:105AC000A9F80590159903F081F80690FDF724FBDD
:105AD000159011E01298D0F84001C0680146069078
